:020000040800F2
:1000000000800120490000080000000000000000FE
:1000100000000000000000000000000000000000E0
:1000200000000000000000000000000000000000D0
:10003000000000000000000000000000CD000008EB
:1000400080B400AFFEE7000080B586B000AF1A4A6A
:100050001A4BD31A7B60194B7B61194B3B61002310
:10006000FB600AE03A69131D3B617B69191D7961E8
:1000700012681A60FB680133FB60FA687B689A4279
:10008000F0D3104A104BD31A7B600F4B7B610023D7
:10009000BB6007E07B691A1D7A6100221A60BB68A9
:1000A0000133BB60BA687B689A42F3D300F0E0F892
:1000B00000BF1837BD4680BD0A00002000000020A8
:1000C00084020008180000200C00002080B400AF5B
:1000D000044B1B680133034A136000BFBD465DF843
:1000E000047B70471400002080B400AF00BFBD4601
:1000F0005DF8047B704780B400AF00BFBD465DF87B
:10010000047B704780B400AF00BFBD465DF8047B40
:10011000704780B400AF00BFBD465DF8047B7047F8
:1001200080B483B000AF1A4BDB6C194A43F0010373
:10013000D3644FF090431B684FF0904223F4406328
:1001400013604FF090431B684FF0904243F480637C
:100150001360104B1B68DB430E4A13600D4B1B688A
:10016000002B04D04FF0904320229A6103E04FF01F
:10017000904320229A6200237B6002E07B68013377
:100180007B607B684CF24F329342F7D9E1E700BFC6
:10019000001002401000002080B400AF164BDB6C52
:1001A000154A43F00103D3644FF090431B684FF0AE
:1001B000904223F4406313604FF090431B684FF06C
:1001C000904243F4806313600C4B1B68DB430B4A83
:1001D00013600A4B1B68002B04D04FF09043202281
:1001E0009A6103E04FF0904320229A6200BFBD461F
:1001F0005DF8047B704700BF001002400C00002037
:1002000080B485B000AFF860B9607A607A68BB6886
:100210001A44FB681B689A4202D2FB6800221A60EB
:10022000FB681B68002B04D17A68BB681A44FB6822
:100230001A60FB681B687A689A4201D2002311E0B9
:10024000FB681B687A68D31ABA689A4203D27A6844
:10025000BB68134403E0FB681A68BB681344FA6880
:100260001360012318461437BD465DF8047B7047C0
:1002700080B500AFFFF754FF0023184680BD80B45F
:0402800000AFFEE7E6
:0A0284009002000848656C6C6F00E2
:0C02900048656C6C6F000000010000006D
:0400000508000049A6
:00000001FF
